:02000000102BC3
:100618000C3083168600080099019A018301A62BE5
:100628008312860102308E0045308D00A9308C007F
:100638008C0B1C2B8D0B1C2B8E0B1C2B232B0800BF
:1006480003308312860002308E0045308D00A930B9
:100658008C008C0B2D2B8D0B2D2B8E0B2D2B342BD7
:10066800080001308312860002308E0045308D006C
:10067800A9308C008C0B3E2B8D0B3E2B8E0B3E2B0A
:10068800452B080002308312860002308E00453068
:100698008D00A9308C008C0B4F2B8D0B4F2B8E0BA4
:1006A8004F2B562B08008312910192010D080C0460
:1006B80003195F2B602B9E2B93010314930D702B52
:1006C800013003108C0D8D0DFF3E031D652B01308D
:1006D800900010089307702B8D1F732B742B642BBD
:1006E800762B762B01300310910D920DFF3E031DE2
:1006F800772B0D080F02031D832B0C080E02031C19
:10070800862B872B8F2B0C088E020D08031C8F035A
:100718008F0211148F2B013003108D0C8C0CFF3EAF
:10072800031D902B01309302031D9B2B9C2B762BD2
:100738009E2B9E2B12088D018D0711088C018C07AA
:10074800A52B0800831297019801950196010C23A7
:10075800AD2B831206128316061283120616B42BCB
:1007680083120612831606123A3083129400940BF1
:10077800BB2B8316061683129701980195019601E3
:10078800CC2B013097070318980A00309807CC2B18
:10079800061ACF2BD02BC52BD12B3A308C0000302A
:1007A8008D0018088F018F0717088E018E075723B1
:1007B80083120D08960196070C0895019507061DEA
:1007C800E62BE72BED2B861DEA2BEB2BED2B2423B9
:1007D800AD2B061DF02BF12BF32B3523AD2B861DEE
:1007E800F62BF72BF92B4623AD2B1423AD2BAD2B72
:0807F800AD2BAD2BAD2B002849
:02400E00F13F80
:00000001FF
